{
  "contractName": "EthereumLottery",
  "abi": [
    {
      "constant": true,
      "inputs": [
        {
          "name": "",
          "type": "uint256"
        }
      ],
      "name": "lotteries",
      "outputs": [
        {
          "name": "numBets",
          "type": "uint256"
        },
        {
          "name": "lastBetBlock",
          "type": "uint256"
        },
        {
          "name": "draw",
          "type": "uint256"
        }
      ],
      "payable": false,
      "stateMutability": "view",
      "type": "function"
    },
    {
      "constant": true,
      "inputs": [],
      "name": "currentLottery",
      "outputs": [
        {
          "name": "",
          "type": "uint256"
        }
      ],
      "payable": false,
      "stateMutability": "view",
      "type": "function"
    },
    {
      "constant": true,
      "inputs": [],
      "name": "numLotteries",
      "outputs": [
        {
          "name": "",
          "type": "uint256"
        }
      ],
      "payable": false,
      "stateMutability": "view",
      "type": "function"
    },
    {
      "constant": true,
      "inputs": [],
      "name": "future",
      "outputs": [
        {
          "name": "",
          "type": "uint256"
        }
      ],
      "payable": false,
      "stateMutability": "view",
      "type": "function"
    },
    {
      "constant": true,
      "inputs": [],
      "name": "quota",
      "outputs": [
        {
          "name": "",
          "type": "uint256"
        }
      ],
      "payable": false,
      "stateMutability": "view",
      "type": "function"
    },
    {
      "constant": true,
      "inputs": [],
      "name": "betPrice",
      "outputs": [
        {
          "name": "",
          "type": "uint256"
        }
      ],
      "payable": false,
      "stateMutability": "view",
      "type": "function"
    },
    {
      "inputs": [],
      "payable": false,
      "stateMutability": "nonpayable",
      "type": "constructor"
    },
    {
      "constant": false,
      "inputs": [],
      "name": "newLottery",
      "outputs": [
        {
          "name": "lotteryId",
          "type": "uint256"
        }
      ],
      "payable": false,
      "stateMutability": "nonpayable",
      "type": "function"
    },
    {
      "constant": false,
      "inputs": [
        {
          "name": "playerAddress",
          "type": "address"
        },
        {
          "name": "bet",
          "type": "uint256"
        }
      ],
      "name": "newPlayer",
      "outputs": [
        {
          "name": "playerId",
          "type": "uint256"
        }
      ],
      "payable": false,
      "stateMutability": "nonpayable",
      "type": "function"
    },
    {
      "constant": false,
      "inputs": [],
      "name": "contractBalance",
      "outputs": [
        {
          "name": "balance",
          "type": "uint256"
        }
      ],
      "payable": false,
      "stateMutability": "nonpayable",
      "type": "function"
    },
    {
      "constant": false,
      "inputs": [
        {
          "name": "lotteryIndex",
          "type": "uint256"
        }
      ],
      "name": "getNumBets",
      "outputs": [
        {
          "name": "numBets",
          "type": "uint256"
        }
      ],
      "payable": false,
      "stateMutability": "nonpayable",
      "type": "function"
    },
    {
      "constant": false,
      "inputs": [
        {
          "name": "lotteryIndex",
          "type": "uint256"
        },
        {
          "name": "playerIndex",
          "type": "uint256"
        }
      ],
      "name": "getPlayerAddress",
      "outputs": [
        {
          "name": "playerAddress",
          "type": "address"
        }
      ],
      "payable": false,
      "stateMutability": "nonpayable",
      "type": "function"
    },
    {
      "constant": false,
      "inputs": [
        {
          "name": "lotteryIndex",
          "type": "uint256"
        },
        {
          "name": "playerIndex",
          "type": "uint256"
        }
      ],
      "name": "getPlayerBet",
      "outputs": [
        {
          "name": "playerBet",
          "type": "uint256"
        }
      ],
      "payable": false,
      "stateMutability": "nonpayable",
      "type": "function"
    },
    {
      "constant": false,
      "inputs": [
        {
          "name": "lotteryIndex",
          "type": "uint256"
        }
      ],
      "name": "getDraw",
      "outputs": [
        {
          "name": "draw",
          "type": "uint256"
        }
      ],
      "payable": false,
      "stateMutability": "nonpayable",
      "type": "function"
    },
    {
      "constant": false,
      "inputs": [
        {
          "name": "lotteryIndex",
          "type": "uint256"
        }
      ],
      "name": "getPayoutsLength",
      "outputs": [
        {
          "name": "payoutsLength",
          "type": "uint256"
        }
      ],
      "payable": false,
      "stateMutability": "nonpayable",
      "type": "function"
    },
    {
      "constant": false,
      "inputs": [
        {
          "name": "bet",
          "type": "uint256"
        }
      ],
      "name": "placeBet",
      "outputs": [
        {
          "name": "success",
          "type": "bool"
        }
      ],
      "payable": true,
      "stateMutability": "payable",
      "type": "function"
    },
    {
      "constant": false,
      "inputs": [],
      "name": "draw",
      "outputs": [
        {
          "name": "result",
          "type": "bool"
        }
      ],
      "payable": false,
      "stateMutability": "nonpayable",
      "type": "function"
    }
  ],
  "bytecode": "0x608060405234801561001057600080fd5b50670de0b6b3a7640000600081905550600a60018190555060028081905550610046610051640100000000026401000000009004565b600581905550610069565b60006003600081548092919060010191905055905090565b610b73806100786000396000f3006080604052600436106100e6576000357c0100000000000000000000000000000000000000000000000000000000900463ffffffff1680630eecae21146100eb57806310fe7c481461011a5780631398e0761461015257806315ec12cd146101a15780632bd56b06146102185780634222113a146102435780637708e43b146102a45780638b7afe2e146102e557806393e7445314610310578063a2ec258f1461033b578063b1e2cb0314610366578063be6307c814610391578063cebe09c9146103d2578063cfd8a175146103fd578063dfc32ae814610428578063f4a690f614610469575b600080fd5b3480156100f757600080fd5b506101006104b4565b604051808215151515815260200191505060405180910390f35b61013860048036038101908080359060200190929190505050610874565b604051808215151515815260200191505060405180910390f35b34801561015e57600080fd5b5061017d60048036038101908080359060200190929190505050610902565b60405180848152602001838152602001828152602001935050505060405180910390f35b3480156101ad57600080fd5b506101d6600480360381019080803590602001909291908035906020019092919050505061092c565b604051808273ffffffffffffffffffffffffffffffffffffffff1673ffffffffffffffffffffffffffffffffffffffff16815260200191505060405180910390f35b34801561022457600080fd5b5061022d610981565b6040518082815260200191505060405180910390f35b34801561024f57600080fd5b5061028e600480360381019080803573ffffffffffffffffffffffffffffffffffffffff16906020019092919080359060200190929190505050610987565b6040518082815260200191505060405180910390f35b3480156102b057600080fd5b506102cf60048036038101908080359060200190929190505050610a60565b6040518082815260200191505060405180910390f35b3480156102f157600080fd5b506102fa610a80565b6040518082815260200191505060405180910390f35b34801561031c57600080fd5b50610325610a9f565b6040518082815260200191505060405180910390f35b34801561034757600080fd5b50610350610aa5565b6040518082815260200191505060405180910390f35b34801561037257600080fd5b5061037b610aab565b6040518082815260200191505060405180910390f35b34801561039d57600080fd5b506103bc60048036038101908080359060200190929190505050610ac3565b6040518082815260200191505060405180910390f35b3480156103de57600080fd5b506103e7610ae3565b6040518082815260200191505060405180910390f35b34801561040957600080fd5b50610412610ae9565b6040518082815260200191505060405180910390f35b34801561043457600080fd5b5061045360048036038101908080359060200190929190505050610aef565b6040518082815260200191505060405180910390f35b34801561047557600080fd5b5061049e6004803603810190808035906020019092919080359060200190929190505050610b12565b6040518082815260200191505060405180910390f35b6000806000806000806000600154600460006005548152602001908152602001600020600101540195506001955085431115610867578540601f6020811015156104fa57fe5b1a7f0100000000000000000000000000000000000000000000000000000000000000029450847f0100000000000000000000000000000000000000000000000000000000000000900460046000600554815260200190815260200160002060020181905550607b60046000600554815260200190815260200160002060020181905550600093505b6004600060055481526020019081526020016000206000015484101561063e57600460006005548152602001908152602001600020600201546004600060055481526020019081526020016000206004016000868152602001908152602001600020600101541415610631576004600060055481526020019081526020016000206003018490806001815401808255809150509060018203906000526020600020016000909192909190915055505b8380600101945050610582565b600060046000600554815260200190815260200160002060030180549050111561079e57600460006005548152602001908152602001600020600301805490503073ffffffffffffffffffffffffffffffffffffffff163181151561069f57fe5b049250600091505b600460006005548152602001908152602001600020600301805490508210156107995760046000600554815260200190815260200160002060040160006004600060055481526020019081526020016000206003018481548110151561070957fe5b9060005260206000200154815260200190815260200160002060000160009054906101000a900473ffffffffffffffffffffffffffffffffffffffff1673ffffffffffffffffffffffffffffffffffffffff166108fc849081150290604051600060405180830381858888f1935050505015801561078b573d6000803e3d6000fd5b5081806001019250506106a7565b610866565b600090505b6004600060055481526020019081526020016000206000015481101561086557600460006005548152602001908152602001600020600401600082815260200190815260200160002060000160009054906101000a900473ffffffffffffffffffffffffffffffffffffffff1673ffffffffffffffffffffffffffffffffffffffff166108fc6000549081150290604051600060405180830381858888f19350505050158015610857573d6000803e3d6000fd5b5080806001019150506107a3565b5b5b6001965050505050505090565b60006002546004600060055481526020019081526020016000206000015410151561089e57600080fd5b600054341415156108ae57600080fd5b6108b83383610987565b506002546004600060055481526020019081526020016000206000015414156108f95743600460006005548152602001908152602001600020600101819055505b60019050919050565b60046020528060005260406000206000915090508060000154908060010154908060020154905083565b600060046000848152602001908152602001600020600401600083815260200190815260200160002060000160009054906101000a900473ffffffffffffffffffffffffffffffffffffffff16905092915050565b60055481565b6000600460006005548152602001908152602001600020600001600081548092919060010191905055905060408051908101604052808473ffffffffffffffffffffffffffffffffffffffff16815260200183815250600460006005548152602001908152602001600020600401600083815260200190815260200160002060008201518160000160006101000a81548173ffffffffffffffffffffffffffffffffffffffff021916908373ffffffffffffffffffffffffffffffffffffffff1602179055506020820151816001015590505092915050565b600060046000838152602001908152602001600020600001549050919050565b60003073ffffffffffffffffffffffffffffffffffffffff1631905090565b60035481565b60015481565b60006003600081548092919060010191905055905090565b600060046000838152602001908152602001600020600201549050919050565b60025481565b60005481565b600060046000838152602001908152602001600020600301805490509050919050565b6000600460008481526020019081526020016000206004016000838152602001908152602001600020600101549050929150505600a165627a7a723058204a37adbd36aac5fcda13f688893880ba1968b9e638916d2d5da4831b6108a4340029",
  "source": "pragma solidity ^0.4.10;\n\ncontract EthereumLottery {\n\tuint public betPrice; //the price of a bet in wei\n\tuint public future; //number of blocks past the lastBetBlock to use for the draw\n\tuint public quota; //number of bets for a single draw\n\tuint public numLotteries;\n\tmapping (uint => Lottery) public lotteries;\n\tuint public currentLottery;\n\n\tstruct Player {\n\t\taddress playerAddress;\n\t\tuint bet;\n\t}\n\n\tstruct Lottery {\n\t\tuint numBets;\n\t\tuint lastBetBlock;\n\t\tuint draw;\n\t\t// Player[] players;\n\t\t// Player[] winners;\n\t\tuint[] payouts;\n\t\tmapping (uint => Player) players;\n\t}\n\n\tfunction newLottery() public returns (uint lotteryId) {\n\t\tlotteryId = numLotteries++;\n\t\t// lotteries[lotteryId] = Lottery(0,0,0);\n\t}\n\n\tfunction newPlayer(address playerAddress, uint bet) public returns (uint playerId) {\n\t\tplayerId = lotteries[currentLottery].numBets++;\n\t\tlotteries[currentLottery].players[playerId] = Player(playerAddress, bet);\n\t}\n\n\t//constrcutor without arguments\n\tfunction EthereumLottery() public {\n\t\tbetPrice = 1000000000000000000;\n\t\tfuture = 10;\n\t\tquota = 2;\n\t\tcurrentLottery = newLottery();\n\t}\n\n\tfunction contractBalance() public returns (uint balance) {\n\t\treturn this.balance;\n\t}\n\n\tfunction getNumBets(uint lotteryIndex) public returns (uint numBets) {\n\t\treturn lotteries[lotteryIndex].numBets;\n\t}\n\n\tfunction getPlayerAddress(uint lotteryIndex, uint playerIndex) public returns (address playerAddress) {\n\t\treturn lotteries[lotteryIndex].players[playerIndex].playerAddress;\n\t}\n\n\tfunction getPlayerBet(uint lotteryIndex, uint playerIndex) public returns (uint playerBet) {\n\t\treturn lotteries[lotteryIndex].players[playerIndex].bet;\n\t}\n\n\tfunction getDraw(uint lotteryIndex) public returns (uint draw) {\n\t\treturn lotteries[lotteryIndex].draw;\n\t}\n\n\tfunction getPayoutsLength(uint lotteryIndex) public returns (uint payoutsLength) {\n\t\treturn lotteries[lotteryIndex].payouts.length;\n\t}\n\t\n\tfunction placeBet(uint bet) payable public returns (bool success) {\n\t\trequire(lotteries[currentLottery].numBets < quota);\n\t\trequire(msg.value == betPrice);\n\t\t\n\t\tnewPlayer(msg.sender, bet);\n\n\t\tif (lotteries[currentLottery].numBets == quota) {\n\t\t\tlotteries[currentLottery].lastBetBlock = block.number;\n\t\t}\n\t\treturn true;\n\t}\n\n\t//TODO: confirm that this is the last hex number in the block hash\n\tfunction draw() public returns (bool result) {\n\t\t\n\t\tuint drawBlock = lotteries[currentLottery].lastBetBlock + future;\n\n\t\t//for testing only\n\t\tdrawBlock = 1;\n\n\t\t//only proceed if drawBlock has been mined\n\t\t//TODO: use a require instead of if, check the quota and numbets and active status\n\t\tif (block.number > drawBlock) {\n\n\t\t\t//calculate the draw\n\t\t\tbytes1 drawHex = block.blockhash(drawBlock)[31];\n\t\t\tlotteries[currentLottery].draw = uint(drawHex);\n\n\t\t\t//for testing only\n\t\t\tlotteries[currentLottery].draw = 123;\n\n\t\t\tfor (uint i = 0; i < lotteries[currentLottery].numBets; i++) {\n\t\t\t\tif (lotteries[currentLottery].players[i].bet == lotteries[currentLottery].draw) {\n\t\t\t\t\tlotteries[currentLottery].payouts.push(i);\n\t\t\t\t}\n\t\t\t}\n\n\t\t\t//if there are any winners, make payouts to the winners\n\t\t\tif (lotteries[currentLottery].payouts.length > 0) {\n\t\t\t\tuint payout = this.balance / lotteries[currentLottery].payouts.length;\n\n\t\t\t\tfor (uint j = 0; j < lotteries[currentLottery].payouts.length; j++) {\n\t\t\t\t\tlotteries[currentLottery].players[lotteries[currentLottery].payouts[j]].playerAddress.transfer(payout);\n\t\t\t\t}\n\n\t\t\t} else { //if there are no winners, refund all the players\n\t\t\t\tfor (uint k = 0; k < lotteries[currentLottery].numBets; k++) {\n\t\t\t\t\tlotteries[currentLottery].players[k].playerAddress.transfer(betPrice); //might be a problem since there might not be a player at players[0]\n\t\t\t\t}\n\t\t\t}\n\n\t\t\t// return true;\n\t\t\t//reset the lottery\n\n\t\t}\n\n\t\t// return false;\n\t\treturn true;\n\t\t// return winners.length;\n\t}\n\n}",
  "sourcePath": "C:\\Users\\jalal\\GitHub\\ethereum-lottery\\contracts\\EthereumLottery.sol",
  "compiler": {
    "name": "solc",
    "version": "0.4.24+commit.e67f0147.Emscripten.clang"
  },
  "schemaVersion": "2.0.0",
  "updatedAt": "2018-06-12T09:44:12.485Z"
}